{
  "_format": "hh-sol-artifact-1",
  "contractName": "StackQuestion",
  "sourceName": "contracts/StackProject.sol",
  "abi": [
    {
      "inputs": [
        {
          "internalType": "address",
          "name": "_owner",
          "type": "address"
        },
        {
          "internalType": "uint256",
          "name": "_id",
          "type": "uint256"
        },
        {
          "internalType": "string",
          "name": "_title",
          "type": "string"
        },
        {
          "internalType": "string",
          "name": "_bodyText",
          "type": "string"
        },
        {
          "internalType": "uint256",
          "name": "_bountyAmount",
          "type": "uint256"
        }
      ],
      "stateMutability": "payable",
      "type": "constructor"
    },
    {
      "inputs": [],
      "name": "CollectAnswerError",
      "type": "error"
    },
    {
      "inputs": [],
      "name": "IsClosedError",
      "type": "error"
    },
    {
      "inputs": [],
      "name": "OnlyOwnerError",
      "type": "error"
    },
    {
      "inputs": [],
      "name": "WithdrawError",
      "type": "error"
    },
    {
      "anonymous": false,
      "inputs": [],
      "name": "answerAcceptedEvent",
      "type": "event"
    },
    {
      "anonymous": false,
      "inputs": [],
      "name": "answerAddedEvent",
      "type": "event"
    },
    {
      "anonymous": false,
      "inputs": [],
      "name": "cancelQuestionEvent",
      "type": "event"
    },
    {
      "inputs": [
        {
          "internalType": "string",
          "name": "_bodyText",
          "type": "string"
        }
      ],
      "name": "addAnswer",
      "outputs": [],
      "stateMutability": "nonpayable",
      "type": "function"
    },
    {
      "inputs": [
        {
          "internalType": "uint256",
          "name": "answerId",
          "type": "uint256"
        }
      ],
      "name": "answerAccepted",
      "outputs": [],
      "stateMutability": "nonpayable",
      "type": "function"
    },
    {
      "inputs": [],
      "name": "cancelQuestion",
      "outputs": [],
      "stateMutability": "nonpayable",
      "type": "function"
    },
    {
      "inputs": [],
      "name": "getAllAnswers",
      "outputs": [
        {
          "components": [
            {
              "internalType": "address",
              "name": "owner",
              "type": "address"
            },
            {
              "internalType": "uint256",
              "name": "id",
              "type": "uint256"
            },
            {
              "internalType": "string",
              "name": "bodyText",
              "type": "string"
            },
            {
              "internalType": "bool",
              "name": "isCorrect",
              "type": "bool"
            }
          ],
          "internalType": "struct StackQuestion.StackAnswer[]",
          "name": "",
          "type": "tuple[]"
        }
      ],
      "stateMutability": "view",
      "type": "function"
    },
    {
      "inputs": [
        {
          "internalType": "uint256",
          "name": "answerId",
          "type": "uint256"
        }
      ],
      "name": "getAnswer",
      "outputs": [
        {
          "components": [
            {
              "internalType": "address",
              "name": "owner",
              "type": "address"
            },
            {
              "internalType": "uint256",
              "name": "id",
              "type": "uint256"
            },
            {
              "internalType": "string",
              "name": "bodyText",
              "type": "string"
            },
            {
              "internalType": "bool",
              "name": "isCorrect",
              "type": "bool"
            }
          ],
          "internalType": "struct StackQuestion.StackAnswer",
          "name": "",
          "type": "tuple"
        }
      ],
      "stateMutability": "view",
      "type": "function"
    },
    {
      "inputs": [],
      "name": "getAnswersCounter",
      "outputs": [
        {
          "internalType": "uint256",
          "name": "",
          "type": "uint256"
        }
      ],
      "stateMutability": "view",
      "type": "function"
    },
    {
      "inputs": [],
      "name": "getBalance",
      "outputs": [
        {
          "internalType": "uint256",
          "name": "",
          "type": "uint256"
        }
      ],
      "stateMutability": "view",
      "type": "function"
    },
    {
      "inputs": [],
      "name": "getBodyText",
      "outputs": [
        {
          "internalType": "string",
          "name": "",
          "type": "string"
        }
      ],
      "stateMutability": "view",
      "type": "function"
    },
    {
      "inputs": [],
      "name": "getBountyAmount",
      "outputs": [
        {
          "internalType": "uint256",
          "name": "",
          "type": "uint256"
        }
      ],
      "stateMutability": "view",
      "type": "function"
    },
    {
      "inputs": [],
      "name": "getId",
      "outputs": [
        {
          "internalType": "uint256",
          "name": "",
          "type": "uint256"
        }
      ],
      "stateMutability": "view",
      "type": "function"
    },
    {
      "inputs": [],
      "name": "getIsAnswered",
      "outputs": [
        {
          "internalType": "bool",
          "name": "",
          "type": "bool"
        }
      ],
      "stateMutability": "view",
      "type": "function"
    },
    {
      "inputs": [],
      "name": "getIsClosed",
      "outputs": [
        {
          "internalType": "bool",
          "name": "",
          "type": "bool"
        }
      ],
      "stateMutability": "view",
      "type": "function"
    },
    {
      "inputs": [],
      "name": "getOwner",
      "outputs": [
        {
          "internalType": "address",
          "name": "",
          "type": "address"
        }
      ],
      "stateMutability": "view",
      "type": "function"
    },
    {
      "inputs": [],
      "name": "getTitle",
      "outputs": [
        {
          "internalType": "string",
          "name": "",
          "type": "string"
        }
      ],
      "stateMutability": "view",
      "type": "function"
    }
  ],
  "bytecode": "0x60a060405260405162001dde38038062001dde83398181016040528101906200002991906200030b565b8473ffffffffffffffffffffffffffffffffffffffff1660808173ffffffffffffffffffffffffffffffffffffffff168152505083600081905550826001908162000075919062000612565b50816002908162000087919062000612565b508060038190555060006004819055506000600560006101000a81548160ff0219169083151502179055506000600560016101000a81548160ff0219169083151502179055505050505050620006f9565b6000604051905090565b600080fd5b600080fd5b600073ffffffffffffffffffffffffffffffffffffffff82169050919050565b60006200011982620000ec565b9050919050565b6200012b816200010c565b81146200013757600080fd5b50565b6000815190506200014b8162000120565b92915050565b6000819050919050565b620001668162000151565b81146200017257600080fd5b50565b60008151905062000186816200015b565b92915050565b600080fd5b600080fd5b6000601f19601f8301169050919050565b7f4e487b7100000000000000000000000000000000000000000000000000000000600052604160045260246000fd5b620001e18262000196565b810181811067ffffffffffffffff82111715620002035762000202620001a7565b5b80604052505050565b600062000218620000d8565b9050620002268282620001d6565b919050565b600067ffffffffffffffff821115620002495762000248620001a7565b5b620002548262000196565b9050602081019050919050565b60005b838110156200028157808201518184015260208101905062000264565b60008484015250505050565b6000620002a46200029e846200022b565b6200020c565b905082815260208101848484011115620002c357620002c262000191565b5b620002d084828562000261565b509392505050565b600082601f830112620002f057620002ef6200018c565b5b8151620003028482602086016200028d565b91505092915050565b600080600080600060a086880312156200032a5762000329620000e2565b5b60006200033a888289016200013a565b95505060206200034d8882890162000175565b945050604086015167ffffffffffffffff811115620003715762000370620000e7565b5b6200037f88828901620002d8565b935050606086015167ffffffffffffffff811115620003a357620003a2620000e7565b5b620003b188828901620002d8565b9250506080620003c48882890162000175565b9150509295509295909350565b600081519050919050565b7f4e487b7100000000000000000000000000000000000000000000000000000000600052602260045260246000fd5b600060028204905060018216806200042457607f821691505b6020821081036200043a5762000439620003dc565b5b50919050565b60008190508160005260206000209050919050565b60006020601f8301049050919050565b600082821b905092915050565b600060088302620004a47fffffffffffffffffffffffffffffffffffffffffffffffffffffffffffffffff8262000465565b620004b0868362000465565b95508019841693508086168417925050509392505050565b6000819050919050565b6000620004f3620004ed620004e78462000151565b620004c8565b62000151565b9050919050565b6000819050919050565b6200050f83620004d2565b620005276200051e82620004fa565b84845462000472565b825550505050565b600090565b6200053e6200052f565b6200054b81848462000504565b505050565b5b8181101562000573576200056760008262000534565b60018101905062000551565b5050565b601f821115620005c2576200058c8162000440565b620005978462000455565b81016020851015620005a7578190505b620005bf620005b68562000455565b83018262000550565b50505b505050565b600082821c905092915050565b6000620005e760001984600802620005c7565b1980831691505092915050565b6000620006028383620005d4565b9150826002028217905092915050565b6200061d82620003d1565b67ffffffffffffffff811115620006395762000638620001a7565b5b6200064582546200040b565b6200065282828562000577565b600060209050601f8311600181146200068a576000841562000675578287015190505b620006818582620005f4565b865550620006f1565b601f1984166200069a8662000440565b60005b82811015620006c4578489015182556001820191506020850194506020810190506200069d565b86831015620006e45784890151620006e0601f891682620005d4565b8355505b6001600288020188555050505b505050505050565b6080516116b46200072a60003960008181610606015281816107f801528181610a3e0152610b4201526116b46000f3fe608060405234801561001057600080fd5b50600436106100ea5760003560e01c80638e78e62e1161008c578063c1a32d3a11610066578063c1a32d3a14610229578063e1b0c14314610247578063f03c4af014610251578063ff3c1a8f1461026f576100ea565b80638e78e62e146101bf578063b5ab58dc146101dd578063bd9554541461020d576100ea565b806325c30730116100c857806325c30730146101495780635d1ca6311461016757806388775d8f14610185578063893d20e8146101a1576100ea565b806308294b99146100ef5780630a80ef451461010d57806312065fe01461012b575b600080fd5b6100f761028d565b6040516101049190610f38565b60405180910390f35b61011561045a565b6040516101229190610f69565b60405180910390f35b610133610471565b6040516101409190610f93565b60405180910390f35b610151610479565b60405161015e9190610f69565b60405180910390f35b61016f610490565b60405161017c9190610f93565b60405180910390f35b61019f600480360381019061019a91906110f7565b610499565b005b6101a9610602565b6040516101b6919061114f565b60405180910390f35b6101c761062a565b6040516101d491906111b4565b60405180910390f35b6101f760048036038101906101f29190611202565b6106bc565b6040516102049190611292565b60405180910390f35b61022760048036038101906102229190611202565b6107f6565b005b610231610a32565b60405161023e9190610f93565b60405180910390f35b61024f610a3c565b005b610259610c32565b6040516102669190610f93565b60405180910390f35b610277610c3c565b60405161028491906111b4565b60405180910390f35b6060600060045467ffffffffffffffff8111156102ad576102ac610fcc565b5b6040519080825280602002602001820160405280156102e657816020015b6102d3610cce565b8152602001906001900390816102cb5790505b50905060005b60045481101561045257600660008281526020019081526020016000206040518060800160405290816000820160009054906101000a900473ffffffffffffffffffffffffffffffffffffffff1673ffffffffffffffffffffffffffffffffffffffff1673ffffffffffffffffffffffffffffffffffffffff16815260200160018201548152602001600282018054610384906112e3565b80601f01602080910402602001604051908101604052809291908181526020018280546103b0906112e3565b80156103fd5780601f106103d2576101008083540402835291602001916103fd565b820191906000526020600020905b8154815290600101906020018083116103e057829003601f168201915b505050505081526020016003820160009054906101000a900460ff16151515158152505082828151811061043457610433611314565b5b6020026020010181905250808061044a90611372565b9150506102ec565b508091505090565b6000600560009054906101000a900460ff16905090565b600047905090565b6000600560019054906101000a900460ff16905090565b60008054905090565b600560009054906101000a900460ff16156104e0576040517ff0f630ac00000000000000000000000000000000000000000000000000000000815260040160405180910390fd5b60405180608001604052803373ffffffffffffffffffffffffffffffffffffffff16815260200160045481526020018281526020016000151581525060066000600454815260200190815260200160002060008201518160000160006101000a81548173ffffffffffffffffffffffffffffffffffffffff021916908373ffffffffffffffffffffffffffffffffffffffff1602179055506020820151816001015560408201518160020190816105979190611566565b5060608201518160030160006101000a81548160ff021916908315150217905550905050600460008154809291906105ce90611372565b91905055507f32ecfe716e396395a45b77b5d23532ad581351d69901bcce3b10db697d1244ac60405160405180910390a150565b60007f0000000000000000000000000000000000000000000000000000000000000000905090565b606060028054610639906112e3565b80601f0160208091040260200160405190810160405280929190818152602001828054610665906112e3565b80156106b25780601f10610687576101008083540402835291602001916106b2565b820191906000526020600020905b81548152906001019060200180831161069557829003601f168201915b5050505050905090565b6106c4610cce565b600660008381526020019081526020016000206040518060800160405290816000820160009054906101000a900473ffffffffffffffffffffffffffffffffffffffff1673ffffffffffffffffffffffffffffffffffffffff1673ffffffffffffffffffffffffffffffffffffffff16815260200160018201548152602001600282018054610752906112e3565b80601f016020809104026020016040519081016040528092919081815260200182805461077e906112e3565b80156107cb5780601f106107a0576101008083540402835291602001916107cb565b820191906000526020600020905b8154815290600101906020018083116107ae57829003601f168201915b505050505081526020016003820160009054906101000a900460ff1615151515815250509050919050565b7f000000000000000000000000000000000000000000000000000000000000000073ffffffffffffffffffffffffffffffffffffffff163373ffffffffffffffffffffffffffffffffffffffff161461087b576040517f65b4837300000000000000000000000000000000000000000000000000000000815260040160405180910390fd5b600560009054906101000a900460ff16156108c2576040517ff0f630ac00000000000000000000000000000000000000000000000000000000815260040160405180910390fd5b6001600560006101000a81548160ff0219169083151502179055506001600560016101000a81548160ff02191690831515021790555060016006600083815260200190815260200160002060030160006101000a81548160ff02191690831515021790555060006006600083815260200190815260200160002060000160009054906101000a900473ffffffffffffffffffffffffffffffffffffffff1673ffffffffffffffffffffffffffffffffffffffff1660035460405161098590611669565b60006040518083038185875af1925050503d80600081146109c2576040519150601f19603f3d011682016040523d82523d6000602084013e6109c7565b606091505b5050905080610a02576040517f8b176d6d00000000000000000000000000000000000000000000000000000000815260040160405180910390fd5b7f7edbfdbef8f650ddc28c0a36ee81603b3d28aa095c6c58cf9c1138747b25458360405160405180910390a15050565b6000600454905090565b7f000000000000000000000000000000000000000000000000000000000000000073ffffffffffffffffffffffffffffffffffffffff163373ffffffffffffffffffffffffffffffffffffffff1614610ac1576040517f65b4837300000000000000000000000000000000000000000000000000000000815260040160405180910390fd5b600560009054906101000a900460ff1615610b08576040517ff0f630ac00000000000000000000000000000000000000000000000000000000815260040160405180910390fd5b6001600560006101000a81548160ff0219169083151502179055506000600560016101000a81548160ff02191690831515021790555060007f000000000000000000000000000000000000000000000000000000000000000073ffffffffffffffffffffffffffffffffffffffff16600354604051610b8690611669565b60006040518083038185875af1925050503d8060008114610bc3576040519150601f19603f3d011682016040523d82523d6000602084013e610bc8565b606091505b5050905080610c03576040517fd477157400000000000000000000000000000000000000000000000000000000815260040160405180910390fd5b7f4420d0cc0ec6bdd2da04c9298e3e0b83ed62c662b1a99d120f31245512d5eeaa60405160405180910390a150565b6000600354905090565b606060018054610c4b906112e3565b80601f0160208091040260200160405190810160405280929190818152602001828054610c77906112e3565b8015610cc45780601f10610c9957610100808354040283529160200191610cc4565b820191906000526020600020905b815481529060010190602001808311610ca757829003601f168201915b5050505050905090565b6040518060800160405280600073ffffffffffffffffffffffffffffffffffffffff16815260200160008152602001606081526020016000151581525090565b600081519050919050565b600082825260208201905092915050565b6000819050602082019050919050565b600073ffffffffffffffffffffffffffffffffffffffff82169050919050565b6000610d6582610d3a565b9050919050565b610d7581610d5a565b82525050565b6000819050919050565b610d8e81610d7b565b82525050565b600081519050919050565b600082825260208201905092915050565b60005b83811015610dce578082015181840152602081019050610db3565b60008484015250505050565b6000601f19601f8301169050919050565b6000610df682610d94565b610e008185610d9f565b9350610e10818560208601610db0565b610e1981610dda565b840191505092915050565b60008115159050919050565b610e3981610e24565b82525050565b6000608083016000830151610e576000860182610d6c565b506020830151610e6a6020860182610d85565b5060408301518482036040860152610e828282610deb565b9150506060830151610e976060860182610e30565b508091505092915050565b6000610eae8383610e3f565b905092915050565b6000602082019050919050565b6000610ece82610d0e565b610ed88185610d19565b935083602082028501610eea85610d2a565b8060005b85811015610f265784840389528151610f078582610ea2565b9450610f1283610eb6565b925060208a01995050600181019050610eee565b50829750879550505050505092915050565b60006020820190508181036000830152610f528184610ec3565b905092915050565b610f6381610e24565b82525050565b6000602082019050610f7e6000830184610f5a565b92915050565b610f8d81610d7b565b82525050565b6000602082019050610fa86000830184610f84565b92915050565b6000604051905090565b600080fd5b600080fd5b600080fd5b600080fd5b7f4e487b7100000000000000000000000000000000000000000000000000000000600052604160045260246000fd5b61100482610dda565b810181811067ffffffffffffffff8211171561102357611022610fcc565b5b80604052505050565b6000611036610fae565b90506110428282610ffb565b919050565b600067ffffffffffffffff82111561106257611061610fcc565b5b61106b82610dda565b9050602081019050919050565b82818337600083830152505050565b600061109a61109584611047565b61102c565b9050828152602081018484840111156110b6576110b5610fc7565b5b6110c1848285611078565b509392505050565b600082601f8301126110de576110dd610fc2565b5b81356110ee848260208601611087565b91505092915050565b60006020828403121561110d5761110c610fb8565b5b600082013567ffffffffffffffff81111561112b5761112a610fbd565b5b611137848285016110c9565b91505092915050565b61114981610d5a565b82525050565b60006020820190506111646000830184611140565b92915050565b600082825260208201905092915050565b600061118682610d94565b611190818561116a565b93506111a0818560208601610db0565b6111a981610dda565b840191505092915050565b600060208201905081810360008301526111ce818461117b565b905092915050565b6111df81610d7b565b81146111ea57600080fd5b50565b6000813590506111fc816111d6565b92915050565b60006020828403121561121857611217610fb8565b5b6000611226848285016111ed565b91505092915050565b60006080830160008301516112476000860182610d6c565b50602083015161125a6020860182610d85565b50604083015184820360408601526112728282610deb565b91505060608301516112876060860182610e30565b508091505092915050565b600060208201905081810360008301526112ac818461122f565b905092915050565b7f4e487b7100000000000000000000000000000000000000000000000000000000600052602260045260246000fd5b600060028204905060018216806112fb57607f821691505b60208210810361130e5761130d6112b4565b5b50919050565b7f4e487b7100000000000000000000000000000000000000000000000000000000600052603260045260246000fd5b7f4e487b7100000000000000000000000000000000000000000000000000000000600052601160045260246000fd5b600061137d82610d7b565b91507fffffffffffffffffffffffffffffffffffffffffffffffffffffffffffffffff82036113af576113ae611343565b5b600182019050919050565b60008190508160005260206000209050919050565b60006020601f8301049050919050565b600082821b905092915050565b60006008830261141c7fffffffffffffffffffffffffffffffffffffffffffffffffffffffffffffffff826113df565b61142686836113df565b95508019841693508086168417925050509392505050565b6000819050919050565b600061146361145e61145984610d7b565b61143e565b610d7b565b9050919050565b6000819050919050565b61147d83611448565b6114916114898261146a565b8484546113ec565b825550505050565b600090565b6114a6611499565b6114b1818484611474565b505050565b5b818110156114d5576114ca60008261149e565b6001810190506114b7565b5050565b601f82111561151a576114eb816113ba565b6114f4846113cf565b81016020851015611503578190505b61151761150f856113cf565b8301826114b6565b50505b505050565b600082821c905092915050565b600061153d6000198460080261151f565b1980831691505092915050565b6000611556838361152c565b9150826002028217905092915050565b61156f82610d94565b67ffffffffffffffff81111561158857611587610fcc565b5b61159282546112e3565b61159d8282856114d9565b600060209050601f8311600181146115d057600084156115be578287015190505b6115c8858261154a565b865550611630565b601f1984166115de866113ba565b60005b82811015611606578489015182556001820191506020850194506020810190506115e1565b86831015611623578489015161161f601f89168261152c565b8355505b6001600288020188555050505b505050505050565b600081905092915050565b50565b6000611653600083611638565b915061165e82611643565b600082019050919050565b600061167482611646565b915081905091905056fea2646970667358221220fab5823707633c700ec8805193cf2dd5f1660f94d27ba4a6e7d8292e5b71788064736f6c63430008130033",
  "linkReferences": {},
  "deployedLinkReferences": {}
}